:020000040800F2
:10000000D807002031020008DF1B0008D1190008C2
:10001000DD1B00083F060008FB210008000000006F
:100020000000000000000000000000000D1D00089E
:100030004106000800000000E11B00080F1D000839
:100040004B0200084B0200084B0200084B0200085C
:100050004B0200084B0200084B0200084B0200084C
:100060004B0200084B0200084B0200084B0200083C
:100070004B0200084B0200084B0200084B0200082C
:100080004B0200084B0200084B0200084B0200081C
:100090004B0200084B0200084B0200084B0200080C
:1000A0004B0200084B0200084B0200084B020008FC
:1000B0004B0200084B0200084B0200084B020008EC
:1000C0004B0200084B0200084B0200084B020008DC
:1000D0004B0200084B0200084B0200084B020008CC
:1000E0004B0200084B0200084B0200084B020008BC
:1000F0004B0200084B0200084B0200084B020008AC
:100100004B0200084B0200084B0200084B0200089B
:100110004B0200084B0200084B0200084B0200088B
:100120004B0200084B0200084B0200084B0200087B
:100130004B0200084B0200084B0200084B0200086B
:100140004B0200084B0200084B0200084B0200085B
:100150004B0200084B0200084B0200084B0200084B
:100160004B0200084B0200084B0200084B0200083B
:100170004B0200084B0200084B0200080000000080
:100180004B0200084B02000800F002F800F041F8B2
:100190000AA090E8000C82448344AAF10107DA45E2
:1001A00001D100F036F8AFF2090EBAE80F0013F0F3
:1001B000010F18BFFB1A43F0010318471C2400006D
:1001C0003C240000103A24BF78C878C1FAD85207FE
:1001D00024BF30C830C144BF04680C6070470000C1
:1001E0000023002400250026103A28BF78C1FBD840
:1001F000520728BF30C148BF0B607047642900F028
:10020000FF80002070471FB502F0D4F91FBD10B564
:1002100010BD00F0DAF91146FFF7F5FF02F068F9BA
:1002200000F0F8F903B4FFF7F2FF03BC00F000FAA6
:100230000948804709480047FEE7FEE7FEE7FEE77A
:10024000FEE7FEE7FEE7FEE7FEE7FEE704480549B6
:10025000054A064B70470000AD1D000889010008E3
:10026000D8010020D8070020D8030020D8030020A0
:1002700053EA020C00F069802DE9F04B4FF00006C4
:10028000002B1FBFB3FA83F503FA05F424FA05F631
:100290005E4012BF1643B2FA82F502FA05F4C5F1C8
:1002A00020051EBF22FA05FC44EA0C04203556EA5C
:1002B000044C4FEA144418BF641C4FF000084FF080
:1002C0000009904271EB030C39D3002919BFB1FA30
:1002D00081F701FA07F6B0FA80F700FA07F6C7F1DE
:1002E00020071EBF20FA07FC46EA0C062037B6FBA3
:1002F000F4FCA7EB0507103F07F01F0BCBF120061E
:100300000CFA0BFB2CFA06F644BFB3460026202F4E
:10031000A4BF5E464FF0000B5BEA060C08BF4FF02F
:10032000010B19EB0B09ABFB027C48EB0608C01B69
:1003300006FB02CC0BFB03CC71EB0C01C1E70B46B7
:10034000024641464846BDE8F08B13B54FF0000029
:100350004FF00001AFF30080BDE81C407047000083
:100360000FB47CB50C0009AA009001D02044401EB7
:10037000084B7B4469460190089800F006F9054651
:100380001CB10020694600F013F928467CBC5DF8DA
:1003900014FB0000450200002DE9F0410E46044622
:1003A000002020622046E168884730B3252805D028
:1003B000D4E901219047206A401CF2E7E168204619
:1003C00000278847050018D0A5F14100192802D858
:1003D00020354FF400673246294620462760FFF754
:1003E0000DFF40B1012804D0F61D26F0070608369F
:1003F000D8E7361DD6E72846DAE7206ABDE8F0815F
:100400002DE9F0410646002410687529314616A5ED
:1004100010D0AFF30080002802DA404213A507E0B5
:1004200031688A0701D512A502E0490704D511A554
:10043000012401E0AFF3008000210A2206F1240725
:1004400009E0B0FBF2FCB0FBF2F302FB1C00303021
:1004500078541846491C0028F3D123462A463046D2
:10046000BDE8F04100F032B8000000002D000000AF
:100470002B000000200000004FF0000200B51346E2
:1004800094469646203922BFA0E80C50A0E80C50B4
:10049000B1F12001BFF4F7AF090728BFA0E80C5065
:1004A00048BF0CC05DF804EB890028BF40F8042B5E
:1004B00008BF704748BF20F8022B11F0804F18BFCB
:1004C00000F8012B70477047704770472DE9F047DF
:1004D0000D4699469246044600F1240801688806B4
:1004E00004D5E06921F01001216000E00120A8425C
:1004F00001DD471B00E00027A1697A1902EB090022
:10050000081AA0612078C00602D42046AFF300800C
:10051000002608E0D4E901211AF806009047206A75
:10052000401C761C20624E45F4DB2078C0060AD5BC
:100530002046AFF3008006E0D4E901213020904747
:10054000206A401C2062381EA7F10107F4DC07E096
:10055000D4E9012118F805009047206A401C206268
:10056000281EA5F10105F3DC2046AFF300802078BA
:10057000000602D50220BDE8F0870120FBE700005D
:1005800001694A1C02610878704700B58FB0CDE957
:1005900001310021059105497944CDE90310114647
:1005A0006846FFF7F9FE0FB000BD0000E5FFFFFF52
:1005B0000A6802F8010B0A607047D1E900239A42E9
:1005C00002D2531C0B6010707047754600F02CF877
:1005D000AE4605006946534620F00700854618B030
:1005E00020B5FFF733FEBDE820404FF000064FF086
:1005F00000074FF000084FF0000B21F00701AC4658
:10060000ACE8C009ACE8C009ACE8C009ACE8C00976
:100610008D46704710B50446AFF300802046BDE814
:100620001040FFF7FFBD0000004870477401002034
:1006300001491820ABBEFEE7260002007047FEE726
:10064000704770B5040003D094F8200010B104E0A6
:10065000012070BD204600F081F82068016841F05B
:100660000101016000F0C6F90546052604E000F02E
:10067000C1F9401B0A2811D820684068C007F6D08D
:100680002068016821F00201016000F0B3F905461D
:100690000BE000F0AFF9401B0A2806D9606A40F46D
:1006A0000030606284F82060D2E7206840688007EC
:1006B000EFD4207E0128206801683DD021F0800120
:1006C0000160607E01282068016838D021F0400177
:1006D0000160A07E01282068016833D021F020014C
:1006E0000160E07E0128206801682ED041F01001F1
:1006F0000160207F01282068016829D021F00801CD
:100700000160607F01282068016824D021F0040185
:100710000160D4E902010843D4E9041211430843FB
:100720006168491E08432168C86100206062012099
:1007300084F82000002070BD41F08001C0E741F046
:100740004001C5E741F02001CAE721F01001CFE7E1
:1007500041F00801D4E741F00401D9E710B586B0B3
:10076000044614216846FFF787FE13492068884233
:100770001FD112480021026842F000720260006836
:1007800000F0007005900D481038026842F0080231
:1007900002600068022200F0080005900320CDE905
:1007A0000210CDE90002092004906946044800F0D7
:1007B0001BF806B010BD0000006400404038024045
:1007C000000C024070B5044600F014F90546601CA8
:1007D00002D004480078044400F00CF9401BA04209
:1007E000FAD370BD000000202DE9F84FDFF8BCA15E
:1007F0000022012503264FF00F090AF1040BAAF18C
:10080000040E00BF0B6805FA02F42340A34270D126
:100810000F7907F00307012F01D0022F16D1876847
:100820004FEA420806FA08FC27EA0C07D1F80CC088
:100830000CFA08FC4CEA070CC0F808C04768A7434C
:100840000C79C4F3001494403C4344600C79E443B5
:10085000A4070AD0C4684FEA420C06FA0CF7BC435E
:100860008F6807FA0CF72743C7600C7904F003047C
:10087000022C12D1D40800EB840CDCF8204057077E
:10088000FF0E09FA07F824EA0804D1F8108008FAE4
:1008900007F848EA0408CCF8208004684FEA420CC4
:1008A00006FA0CF7BC430F7907F0030707FA0CF7B9
:1008B000274307604C6814F4403F70D03C4C2768D5
:1008C00047F480472760246822F0030704F480443B
:1008D0000094384C07EB040CDCF8084897074FEA03
:1008E000177809FA08F7BC43334FB84202D1002702
:1008F00024E054E0314FB84201D101271EE0304FCF
:10090000B84201D1022719E02E4FB84201D1032786
:1009100014E02D4FB84201D104270FE02B4FB8420D
:1009200001D105270AE02A4FB84201D1062705E088
:10093000284FB84201D1072700E0082707FA08F737
:100940002743CCF80878DAF800405746D1F804C0BD
:100950009C435FEACC2C00D51C433C60DBF8004094
:100960005F46D1F804C09C435FEA8C2C00D51C4341
:100970003C60DEF800407746D1F804C09C435FEA53
:100980008C3C00D51C433C60084F083F3C68D1F8C4
:1009900004C09C435FEACC3C00D51C433C60521C25
:1009A000102AFFF42FAFBDE8F88F0000083C01408B
:1009B0004438024000300140000002400004024080
:1009C00000080240000C02400010024000140240E7
:1009D00000180240001C0240426921EA02030A405A
:1009E00043EA0241816170470AB18161704709049D
:1009F000FBE700000148806870470000000000200D
:100A0000024881680278114481607047000000202C
:100A10000B4810B5016841F400710160016841F4B0
:100A200080610160016841F480710160032000F081
:100A300061F80F2000F006F800F024F8002010BD47
:100A4000003C024070B50D4D04464FF47A71287891
:100A5000B1FBF0F00A490968B1FBF0F000F03BFD92
:100A600048B9102C07D200222146501E00F022F86F
:100A700000206C6070BD012070BD000000000020EF
:100A80000C0000200A4808B5016841F4804101606B
:100A9000006800F4804000900548001F016841F0A4
:100AA00080510160006800F08050009008BD000097
:100AB00044380240F0B40E4B1B680C46C3F30223CB
:100AC000C3F10705042D00D90425191D072901D2FA
:100AD000002300E0DB1E012606FA05F1491E214035
:100AE00099409E40761E16403143F0BC01F086BB13
:100AF0000CED00E0064900F0070208684FF6FF031E
:100B0000184040EA0220034A104308607047000082
:100B10000CED00E00000FA052DE9F0470E46050057
:100B200065D0DFF81481D8F80000F7B200F00700B4
:100B3000B04207D288F80070D8F8000000F0070033
:100B4000B04254D128683D4C810712D5400703D5E7
:100B5000206840F4E05020602878000703D5206822
:100B600040F4604020602068A96820F0F00008434D
:100B700020602878C0072DD03049686808390128DE
:100B800012D0022813D0032811D009688907002940
:100B90002DDA216821F0030101432160FFF72AFFCC
:100BA000814641F2883A0EE009688903EFE7096857
:100BB0008901ECE7FFF71EFFA0EB0901514502D9BF
:100BC0000320BDE8F0872068696800F00C00B0EBF6
:100BD000810FEFD1D8F80010404601F00701B14273
:100BE00007D90770006800F00700B04201D001206B
:100BF000E7E72878400705D52068E96820F4E05049
:100C0000084320602878000706D52068296920F469
:100C1000604040EAC100206000F038F82168084ACE
:100C2000C1F30311515CC8400649086006480068DA
:100C3000FFF708FF0020C4E7003C024008380240EC
:100C4000BE2500080C0000200400002004480549CF
:100C500000680968044AC1F38221515CC8407047AA
:100C60000C00002008380240CE2500080448054941
:100C700000680968044AC1F34231515CC8407047BA
:100C80000C00002008380240CE250008154810B599
:100C9000006810F00C02144813D01449042A0FD035
:100CA000082A0ED10F4C241F2268236802F03F024D
:100CB0005B0207D52068C0F38810A0FB010106E0A5
:100CC000084610BD2168C1F38811A1FB0001002373
:100CD000FFF7CEFA2168C1F30141491C4900B0FB7E
:100CE000F1F010BD083802400024F40040787D0186
:100CF0002DE9F84F04006ED02078DFF84C93C00740
:100D0000A9F104054AD009F104000168C1F3810189
:100D1000012908D00068C0F3810002280AD1D9F85F
:100D20000000400206D52868800337D56068002897
:100D3000E1D033E06068B0F5803F10D0B0F5A02F6F
:100D4000286810D020F480302860286820F48020A3
:100D500028606068A8B1FFF74DFE06460DE02868E0
:100D600040F48030F4E740F480202860F7E700BFCB
:100D7000FFF740FE801B642873D828688003F7D5EE
:100D80000CE0FFF737FE064605E000BFFFF732FE36
:100D9000801B6428F0D828688003F7D42078DFF817
:100DA000AC8280074FF0000A3ED5A748001D0168BD
:100DB00011F00C0F08D00068C0F3810002280BD19D
:100DC000D9F80000400207D42868800716D5E068EB
:100DD000012800D112E033E1E068B8B10120C8F881
:100DE0000000FFF707FE064605E000BFFFF702FE22
:100DF000801B0228C0D828688007F7D52868216999
:100E000020F0F80040EAC10028600DE0C8F800A01A
:100E1000FFF7F0FD064604E0FFF7ECFD801B02281B
:100E20001FD828688007F7D42078000722D5864F7E
:100E300087486169703771B101210160FFF7DAFD00
:100E4000064604E0FFF7D6FD801B022809D8386863
:100E50008007F7D50EE0C0F800A0FFF7CBFD0646EF
:100E600005E082E0FFF7C6FD801B02287DD83868C8
:100E70008007F7D42078400768D5DFF8CCB1002789
:100E80000BF13C0BDBF80000C0000BD4DBF80010CA
:100E900041F08051CBF80010DBF80000012700F092
:100EA000805000906B4E3068C00510D4306840F41C
:100EB00080703060FFF79EFD009005E0FFF79AFD1F
:100EC0000099401A022850D83068C005F6D55E4E09
:100ED000A0686C3601280FD00528306810D020F0AB
:100EE00001003060306820F004003060A068B8B1C4
:100EF000FFF780FD00900FE0306840F00100F4E75C
:100F000040F004003060F7E7FFF774FD0099411AE4
:100F100041F28830814266D830688007F4D50EE00F
:100F2000FFF768FD009007E0FFF764FD0099411AA4
:100F300041F28830814256D830688007F4D42FB10E
:100F4000DBF8001021F08051CBF80010A069C8B385
:100F50003D49091D0968C1F3810102294AD00228CF
:100F6000504607D0C8F8600000E03CE0FFF742FDC3
:100F700004463BE04746C8F86000FFF73BFD0646E5
:100F800005E000BFFFF736FD801B02282BD828683C
:100F90008001F7D4D4E907010843A16A2E4A490821
:100FA00002EB0141626A41EA8211084394F82C1075
:100FB00040EA0161C9F8001001203866FFF71AFD08
:100FC000044606E03EE000BFFFF714FD001B0228C8
:100FD00009D828688001F7D534E000BFFFF70AFD83
:100FE000001B022802D90320BDE8F88F2868800181
:100FF000F4D427E00128F7D0D9F80000E26900F422
:10100000800191421CD1226A00F03F01914217D128
:1010100047F6C071626A0140B1EB821F10D1A26A2B
:101020004FF0FF3300F4403103EB5202B1EB024FBB
:1010300006D194F82C1000F07060B0EB016F01D075
:101040000120D1E70020CFE70438024000004742EA
:10105000800E4742007000400000FFFF70B50400A2
:1010600009D0606A002540B125616561A56294F8E8
:10107000510040B10CE0012070BD6068B0F5827F86
:10108000F4D0E561F2E784F85050204600F044F8CF
:10109000022084F851002068016821F040010160BD
:1010A000A088218900F4827001F404410843A189D9
:1010B00001F400610843217C01F002010843217D15
:1010C00001F001010843218B01F400710843217FE5
:1010D00001F03801084394F8201001F08001084322
:1010E000218D01F40051084321680860A0690421A2
:1010F00001EA104094F8241001F01001084321681F
:1011000048602068C16921F40061C1616565012002
:1011100084F85100002070BD10B586B0044614213B
:101120006846FFF7A9F913492068884220D1124880
:101130000021026842F480520260006800F480508E
:1011400005900D481438026842F0020202600068FF
:1011500000F002000590382000900220CDE9010146
:10116000032003900520049069460448FFF73CFBE8
:1011700006B010BD00300140443802400004024077
:101180002DE9F84F984616468A460446FFF732FC8A
:10119000814694F8510001281ED1BAF1000F73D096
:1011A000002E71D094F85000012815D0012784F842
:1011B0005070032084F8510000256565C4F830A004
:1011C000A686E686A563A587E58765642564A0688D
:1011D000B0F5004F03D00CE00220BDE8F88F206886
:1011E000016821F0400101602068016841F48041FC
:1011F000016020680168490603D4016841F040019C
:101200000160E068B0F5006F606803D048B3012E5C
:1012100027D047E008B1012E1FD1206B216800883C
:10122000C86006E020688168890709D5216B0988B4
:10123000C160206B801C2063E08E401EE0860CE0C5
:10124000FFF7D8FBA0EB0901414503D3B8F1FF3FFD
:1012500003D035E0B8F1000F32D0E08E0028E1D1A4
:1012600023E0206B21680078087306E0206881681D
:1012700089070AD5216B09780173206B401C206314
:10128000E08E401EE0860DE02BE0FFF7B3FBA0EB05
:101290000901414503D3B8F1FF3F03D010E0B8F195
:1012A000000F0DD0E08E0028E0D14A46414620468E
:1012B00000F098FC08B120206065A06830B109E01A
:1012C00084F8517084F85050032086E72068C16884
:1012D0008068009084F8517004F8505F60680028BE
:1012E000F3D0012079E72DE9FF4F81B01D469346E9
:1012F00004464FF001090E9EFFF77CFB074694F869
:1013000051006168012806D0B1F5827F3CD1A16807
:10131000C9BB042838D10298002871D0BBF1000F56
:10132000FBD0002DF9D094F8500001282CD04FF0BC
:10133000010A84F850A094F85100042802D0052036
:1013400084F851004FF00008C4F85480C4F838B055
:10135000E587A58702992163E586A586C4F84080C4
:10136000C4F8448020680168490603D4016841F04C
:1013700040010160E068B0F5006F606808D0F0B32C
:10138000012D49D081E0FFE7022005B0BDE8F08FD4
:1013900008B1012D39D1206B21680088C860206B0D
:1013A000801C2063E08E401EE0862EE0206881686D
:1013B00089070FD5E18E69B1B9F1010F0AD1216B0F
:1013C0000988C160206B801C2063E08E401EE0868F
:1013D0004FF0000920688168C9070CD0E18F51B136
:1013E000C068A16B0880A06B801CA063E08F401ECA
:1013F000E0874FF00109FFF7FDFAC01B01E00BE0A9
:1014000067E0B04201D3701C50D1E08E0028CDD1EE
:10141000E08F0028CAD13EE0206B21680078087375
:10142000206B401C2063E08E401EE0862DE020688B
:10143000816889070FD5E18E69B1B9F1010F0AD131
:10144000216B09780173206B401C2063E08E401EE5
:10145000E0864FF0000920688168C9070CD0E18F51
:1014600051B1C068A16B0870A06B401CA063E08FF5
:10147000401EE0874FF00109FFF7BCFAC01BB042E5
:1014800002D3701C01D011E086B1E08E0028CED1CD
:10149000E08F0028CBD13A463146204600F0A2FB2F
:1014A00050B12020606584F8508012E084F851A08B
:1014B00084F85080032068E7A06818B92068C168E4
:1014C0008068009084F851A084F85080606D0028F6
:1014D000F1D0012059E710B5401EB0F1807F01D353
:1014E000012010BD4FF0E02460610F21601700F073
:1014F00085FE0020A06107202061002010BD0000B3
:1015000070B590F83C20012A32D0012480F83C408C
:10151000022280F83D2003685A689D6822F0700618
:101520000A6832435A60134B02689A4214D0B2F1EF
:10153000804F11D0104B9A420ED0104B9A420BD0D4
:101540000F4B9A4208D00F4B9A4205D00E4B9A424D
:1015500002D00E4B9A4204D1496825F0800319430A
:10156000916080F83D40002180F83C10084670BD35
:10157000022070BD0000014000040040000800404F
:10158000000C0040000401400040014000180040F1
:1015900010B586B0044614216846FEF76DFF0E496B
:1015A0002068884215D10D480021026842F00802E7
:1015B0000260006800F0080005904FF48040009041
:1015C0000220CDE90101CDE9031069460448FFF787
:1015D0000BF906B010BD0000000800403038024092
:1015E000000C024070B5044690F83C0000260D4601
:1015F00001280FD0012084F83C006AB1042A1DD0D4
:10160000082A2FD00C2A3FD00126002084F83C0065
:10161000304670BD022070BD206800F045FC206897
:10162000816941F0080181612068816921F004012C
:101630008161206881692A69114311E0206800F006
:1016400063FC2068816941F40061816120688169DF
:1016500021F480618161206881692A6941EA02215F
:101660008161D2E7206800F085FC2068C16941F003
:101670000801C1612068C16921F00401C1612068CD
:10168000C1692A69114311E0206800F0A7FC2068B5
:10169000C16941F40061C1612068C16921F48061C0
:1016A000C1612068C1692A6941EA0221C161ACE7D0
:1016B00010B5040003D094F83D0010B107E00120FC
:1016C00010BD002084F83C00204600F01FF80220E6
:1016D00084F83D00211D206800F070FB012084F893
:1016E000460084F83E0084F83F0084F8400084F807
:1016F000410084F8420084F8430084F8440084F8F0
:10170000450084F83D00002010BD000008B50068C9
:101710000649884208D10648016841F00401016089
:10172000006800F00400009008BD000000080040C0
:101730004038024010B50446022249B104290ED0B7
:10174000082913D094F84100012816D0012010BDBB
:1017500094F83E000128F9D184F83E200FE094F877
:101760003F000128F2D184F83F2008E094F84000BF
:101770000128EBD184F8402001E084F841200122C7
:10178000206800F083FB16492068164A884201D081
:10179000904203D1436C43F4004343642068884281
:1017A00013D0B0F1804F10D00F4988420DD00F49AF
:1017B00088420AD00E49884207D0904205D00D4990
:1017C000884202D00C49884204D1816801F00701A7
:1017D000062903D0016841F001010160002010BD1D
:1017E00000000140000401400004004000080040E7
:1017F000000C0040004001400018004070B504009B
:1018000004D094F84100002510B106E0012070BD1D
:1018100084F84050204600F023F8242084F841004A
:101820002068C16821F40051C160204600F026FC08
:101830002068016921F4904101612068416921F02B
:101840002A0141612068C16841F40051C1606564AA
:10185000202084F8410084F842006563002070BDB8
:10186000F0B587B0044614216846FEF705FE2A4A03
:10187000216800242948022503260727914229D1FF
:10188000264914310A6842F010020A60096801F022
:1018900010010591016841F002010160016801F049
:1018A00002010591016841F001010160006802AA8E
:1018B00000F0010005908020CDE9000582E8D0000D
:1018C00069461748FEF790FF2802CDE900056946F2
:1018D00014481AE0144A91421CD1104910310A6888
:1018E00042F480220A60096801F4802105910168B0
:1018F00041F0040101600068694600F004000590B1
:101900004FF44060CDE90005084802AA82E8D00003
:10191000FEF76AFF07B0F0BD00100140303802400A
:10192000000402400000024000480040000802405D
:101930002DE9F843044690F84100984616460D46B6
:10194000202802D00220BDE8F88385B17EB10020B6
:101950006064212084F84100FFF74CF8A68481469A
:10196000E684A0682027B0F5805F02D003E0012064
:10197000E9E7206910B12E4600250EE000260CE0B4
:101980008021204600F000FCA8B9C6B116F8010B72
:1019900021684860E08C401EE084E08C4B464FF0AC
:1019A0000002CDF800800028EAD14FF04001204627
:1019B00000F0EAFB40B184F841700320C3E735F83A
:1019C000020BC0F30800E3E784F841700020BAE797
:1019D000FEE700000E4810B50C490160022141608D
:1019E00000214FF470228160C0E903124FF44012CD
:1019F0004261017641768176C17601774177FEF7C3
:101A000020FE002801D072B6FEE710BD0064004041
:101A1000100000202DE9F04F87B014216846FEF732
:101A20002BFD3D480025016841F00201016001687D
:101A300001F002010591016841F0010101600168B6
:101A400001F001010591016841F0080101600168A0
:101A500001F008010591016841F00401016001688D
:101A600001F004010591016841F080010160016805
:101A700001F080010591016841F0200101600168D9
:101A800001F020010591016841F01001016000683A
:101A9000DFF8888000F010000590012210214046F8
:101AA000FEF7A2FFDFF87890012211464846FEF7C4
:101AB0009BFF0122DFF86CA0970339465046FEF7E2
:101AC00093FFDFF864B0012280215846FEF78CFFB7
:101AD0001020012402268DE8710069464046FEF779
:101AE00083FE01AA009482E8700069464846FEF72A
:101AF0007BFE01AA009782E8700069465046FEF717
:101B000073FE80208DE8710069465846FEF76CFE32
:101B100007B0BDE8F08F00003038024000000240FE
:101B20000004024000140240001002400E4810B5AC
:101B30000C4901604FF48271416000218160C160F5
:101B40004FF400720161C0E90512C1610162416296
:101B500081620A21C162FFF781FA002801D072B6C2
:101B6000FEE710BD003001403800002010B58AB0FB
:101B7000002407941C2168460894FEF77DFC164853
:101B8000144901605321C0E90114F921C0E903148B
:101B90008461FFF78DFD08B172B6FEE7079407A9CF
:101BA0000D480894FFF7ACFC08B172B6FEE7602060
:101BB00000907D20CDE9010408226946064804947E
:101BC000FFF710FD08B172B6FEE70348FFF7E0FC2F
:101BD0000AB010BD0008004090000020FEE7FEE7BC
:101BE00070470000F8B515460E460B4600920446B5
:101BF0000122022100F02CF8A0B913481349006813
:101C0000B0FBF1F04FF47A71484300906068B0F592
:101C1000827F0DD13346002280212046009500F0BE
:101C200017F870B1606D40F0200060650320F8BDCA
:101C3000009830B1401E009020688068C0430006C4
:101C4000F6D50020F8BD00000C00002000366E0123
:101C50002DE9F8431E46914688460446089DFEF746
:101C6000C9FE401B351AFEF7C5FE07462648006828
:101C7000C0F3CB3068430AE0701C09D0FEF7BAFE0F
:101C8000C01BA8420FD275B10098B8B3401E009097
:101C90002068816838EA010033D000214945EBD142
:101CA0000020BDE8F8832068416821F0E001416030
:101CB0006068B0F5827F0BD1A068B0F5004F02D00C
:101CC000B0F5806F04D12068016821F04001016007
:101CD000A06AB0F5005F09D12068016821F40051C5
:101CE00001602068016841F400510160012084F81E
:101CF0005100002084F850000320D2E7FFE70025C0
:101D0000C6E70121CAE700000C0000207047FEF77B
:101D100077BE000030B593B030216846FEF7ACFBCB
:101D200014210CA8FEF7A8FB1E480025016841F00D
:101D300080510160006800F0805011901A480168DD
:101D400041F4804101600068022400F48040119059
:101D500001200090000401908001CDE90640192087
:101D600008904FF4A870CDE9090404200B90684650
:101D7000FEF7BEFF08B172B6FEE70CA90F2081E89E
:101D800031004FF4A0500F904FF480501090052177
:101D90000CA8FEF7C1FE002801D072B6FEE713B012
:101DA00030BD000040380240007000400248016829
:101DB00041F470010160704788ED00E0F0B5026801
:101DC000274B284D284E294F294C4FF0804C9842E4
:101DD00009D0604507D0A84205D0B04203D0B84230
:101DE00001D0A04204D122F0700E4A6842EA0E02ED
:101DF00098421BD0604519D0A84217D0B04215D0E8
:101E0000B84213D0A04211D01A4DA8420ED01A4D9C
:101E1000A8420BD0194DA84208D0194DA84205D0B0
:101E2000184DA84202D0184DA84203D122F44075A3
:101E3000CA682A434D6922F080022A438D68C56230
:101E40000D688562984201D0A04201D10969016301
:101E5000016841F004010160012141610260F0BDAF
:101E6000000001400004004000080040000C004059
:101E7000000401400040014000440140004801408E
:101E800000180040001C00400020004010B501F088
:101E90001F030121046A99408C430462016A9A403D
:101EA0001143016210BD0000F0B5036A026A22F01E
:101EB0000102026242688469124E24F073050C68C4
:101EC0002C4323F002058B682B430D4DA84201D013
:101ED000B04205D123F00807CB683B4323F004034D
:101EE000A84201D0B04205D14D6922F44072154399
:101EF0008A692A4342608461496841630362F0BD94
:101F00000000014000040140F0B5026A036A23F0BA
:101F100010030362436884690D6824F4E64444EACC
:101F200005248D6822F0200242EA05120F4D104E62
:101F3000A84201D0B04206D1CF6822F0800242EA26
:101F4000071222F04002A84201D0B04207D14D69E9
:101F500023F4406343EA85038D6943EA85034360C4
:101F60008461496881630262F0BD000000000140A5
:101F700000040140F0B5026A036A23F4807303622F
:101F80004368C46922F4007224F073050C68124E91
:101F90002C438D6842EA05220E4DA84201D0B04282
:101FA00006D1CF6822F4006242EA072222F480625E
:101FB000A84201D0B04207D14D6923F4405343EA0F
:101FC00005138D6943EA05134360C4614968C16321
:101FD0000262F0BD000001400004014030B5046A17
:101FE000026A22F4805202624268C3690D6823F4D7
:101FF000E64343EA05238D6824F4005444EA05349B
:10200000084DA84202D0084DA84204D14D6922F4DF
:10201000804242EA85124260C361496801640462F9
:1020200030BD0000000001400004014001680C3197
:1020300051E8002F22F4907241E80023002BF5D1E3
:102040000168143151E8002F22F0010241E8002319
:10205000002BF5D1016B012909D101680C3151E840
:10206000002F22F0100241E80023002BF5D120219F
:1020700080F84210002101637047000070B50446EB
:1020800000680169E26821F440511143016121694E
:10209000A068E26908436169114308432168CA687E
:1020A00049F20C639A430243CA6020684169A269FD
:1020B00021F440711143416131492068884202D0C6
:1020C0003049884202D1FEF7D1FD01E0FEF7BEFDA6
:1020D000E2690023192164253226B2F5004F6268B7
:1020E00028D0A0FB0101930F9200FEF7C1F8014632
:1020F000B0FBF5F06FF01802504301EB800006EBE7
:102100000010B0FBF5F000F0F002B1FBF5F002EBCF
:102110000012B1FBF5F06FF01803584301EB80009B
:1021200006EB0010B0FBF5F000F00F002168104442
:10213000886070BDA0FB010192185B41FEF798F822
:102140000146B0FBF5F00201B1FBF5F06FF01803AA
:10215000584301EB800006EBC000B0FBF5F000F047
:10216000F80002EB4002B1FBF5F0584301EB8000B0
:1021700006EBC000B0FBF5F000F00700D6E700006A
:1021800000100140001401402DE9F843984617461D
:102190000D460446089E24E0701C22D0FEF72AFC5F
:1021A000A0EB0800B0421AD8CEB12068C168490738
:1021B00017D5802D15D0402D13D00168C9430907CC
:1021C0000FD401680025406800902046FFF72EFFDD
:1021D0000820606484F840500120BDE8F8830320A3
:1021E000FBE72068006835EA000004D00020B84210
:1021F000D2D00020F1E70120F9E7FEE70907090E38
:10220000002804DB00F1E02080F80014704700F0A3
:102210000F0000F1E02080F8141D70473EB540F03B
:1022200080008DF8080000208DF804000D4C8DF81A
:1022300009008DF80500024610212046FEF7D4FB68
:102240004FF0FF300090022301AA02A90648FFF7D1
:102250004AF8012210212046FEF7C6FB9DF8050032
:102260003EBD0000000002403800002038B500F0FC
:102270007F008DF800000A4C8DF80110002210211B
:102280002046FEF7B1FB4FF0FF33022269460548B6
:10229000FEF776FF012210212046FEF7A5FB38BD90
:1022A000000002403800002038B500F07F008DF8B3
:1022B00000000A4C8DF80110002201212046FEF793
:1022C00093FB4FF0FF33022269460548FEF758FFA3
:1022D000012211462046FEF787FB38BD000402406C
:1022E000380000203EB5012210212B48FEF77CFB70
:1022F0002A4C012211462046FEF776FB0120FEF70C
:1023000061FA0020FFF78AFF0120FEF75BFA002048
:10231000FFF784FF1E2820D180208DF808000020C0
:102320008DF804008DF809008DF8050002460121A2
:102330002046FEF759FB4FF0FF300090022301AA20
:1023400002A91748FEF7CFFF012211462046FEF7EB
:102350004BFB9DF805000F2801D001203EBD042154
:102360007D20FFF783FF3220FEF72CFAA8214020C2
:10237000FFF77CFF00214120FFF778FF00210F20AD
:10238000FFF792FF07211020FFF78EFF0A20FEF7CC
:1023900019FA00203EBD0000000002400004024087
:1023A0003800002010B51048A6B00DF1040CB0F9AB
:1023B0000410B0F90A40B0F90830B0F906208CE8F2
:1023C0001E00B0F902100091B0F9003007A2802180
:1023D00005A8FDF7C5FF82B20348642305A990381C
:1023E000FFF7A6FA26B010BD680100204143433A2A
:1023F000202564202564202564207C204759524FE5
:102400003A2025642025642025640D0A0000000080
:102410002DE9F04186B0050029D0002492208DF8E6
:102420000C008DF80D408DF81040DFF8B8808DF865
:102430000E408DF811408DF80F408DF81240224665
:1024400010214046FEF7D0FA671E072301AA03A910
:1024500025480097FEF747FF064601221021404617
:10246000FEF7C2FA2EB1304606B0BDE8F081012079
:10247000FAE7BDF805002880BDF807006880BDF8C0
:102480000900A88082208DF80C008DF80D408DF891
:102490001040164E8DF80E408DF811408DF80F400B
:1024A0008DF81240002201213046FEF79DFA0723E5
:1024B00001AA03A90C480097FEF715FF0746012261
:1024C00011463046FEF790FA0FB13C4608E0BDF8E1
:1024D0000500E880BDF807002881BDF80900688183
:1024E0002046C1E7000002403800002000040240FE
:1024F000FEF78EFAFFF70EFCFFF78CFAFFF76AFA89
:10250000FFF714FBFFF732FB254824490024016044
:102510002449C0E901144FF48061C0E9034104215A
:10252000C0E90514C461FFF769F908B172B6FEE7A6
:102530001B481D49483801604FF4E131C0E90114DE
:102540000C21C460C0E904418461C461FFF756F9FD
:1025500008B172B6FEE7124808219038FFF7EAF892
:10256000FFF7C0FE114D124E4FF480444FF4FA773E
:102570000B484830FFF74CFFFFF714FF6420FEF7CD
:1025800021F921462846FEF727FA80213046FEF73A
:1025900023FA3846FEF716F9EAE700000048004043
:1025A00020010020A086010000100140001402401C
:1025B000001002404FF04070E1EE100A704700003A
:1025C00000000000000001020304060708090000E3
:1025D0000000010203040000F825000800000020AC
:1025E00010000000C40100080826000810000020A8
:1025F000C8070000E0010008010000001000000012
:08260000000000000024F400BA
:040000050800018965
:00000001FF
